{
  "contractName": "EthMov",
  "abi": [
    {
      "anonymous": false,
      "inputs": [
        {
          "indexed": false,
          "internalType": "uint256",
          "name": "transportID",
          "type": "uint256"
        },
        {
          "indexed": false,
          "internalType": "address",
          "name": "transporter",
          "type": "address"
        }
      ],
      "name": "AllocatedTransportSupplyCancelled",
      "type": "event"
    },
    {
      "anonymous": false,
      "inputs": [
        {
          "indexed": false,
          "internalType": "uint256",
          "name": "transportID",
          "type": "uint256"
        }
      ],
      "name": "Delivery",
      "type": "event"
    },
    {
      "anonymous": false,
      "inputs": [
        {
          "indexed": false,
          "internalType": "uint256",
          "name": "transportID",
          "type": "uint256"
        }
      ],
      "name": "PickUp",
      "type": "event"
    },
    {
      "anonymous": false,
      "inputs": [
        {
          "indexed": false,
          "internalType": "uint256",
          "name": "transportID",
          "type": "uint256"
        },
        {
          "indexed": true,
          "internalType": "uint8[4]",
          "name": "itinerary",
          "type": "uint8[4]"
        },
        {
          "indexed": true,
          "internalType": "uint8",
          "name": "sizeCategory",
          "type": "uint8"
        },
        {
          "indexed": true,
          "internalType": "uint8",
          "name": "weightCategory",
          "type": "uint8"
        },
        {
          "indexed": false,
          "internalType": "uint256",
          "name": "timestamp",
          "type": "uint256"
        },
        {
          "indexed": false,
          "internalType": "uint256",
          "name": "maxDeliveryTimestamp",
          "type": "uint256"
        },
        {
          "indexed": false,
          "internalType": "uint256",
          "name": "bidPrice",
          "type": "uint256"
        }
      ],
      "name": "TransportDemanded",
      "type": "event"
    },
    {
      "anonymous": false,
      "inputs": [
        {
          "indexed": false,
          "internalType": "uint256",
          "name": "_transportID",
          "type": "uint256"
        },
        {
          "indexed": false,
          "internalType": "address",
          "name": "transportSupplier",
          "type": "address"
        },
        {
          "indexed": false,
          "internalType": "uint256",
          "name": "askPrice",
          "type": "uint256"
        }
      ],
      "name": "TransportSupplied",
      "type": "event"
    },
    {
      "anonymous": false,
      "inputs": [
        {
          "indexed": false,
          "internalType": "uint256",
          "name": "transportID",
          "type": "uint256"
        },
        {
          "indexed": false,
          "internalType": "address",
          "name": "selectedTransporter",
          "type": "address"
        },
        {
          "indexed": false,
          "internalType": "uint256",
          "name": "atPrice",
          "type": "uint256"
        }
      ],
      "name": "TransportationAllocated",
      "type": "event"
    },
    {
      "anonymous": false,
      "inputs": [
        {
          "indexed": false,
          "internalType": "uint256",
          "name": "transportID",
          "type": "uint256"
        },
        {
          "indexed": false,
          "internalType": "address",
          "name": "transporter",
          "type": "address"
        }
      ],
      "name": "UnallocatedTransportSupplyCancelled",
      "type": "event"
    },
    {
      "anonymous": false,
      "inputs": [
        {
          "indexed": false,
          "internalType": "uint256",
          "name": "transportID",
          "type": "uint256"
        }
      ],
      "name": "transportDemandCancellation",
      "type": "event"
    },
    {
      "constant": true,
      "inputs": [
        {
          "internalType": "uint256",
          "name": "",
          "type": "uint256"
        },
        {
          "internalType": "uint256",
          "name": "",
          "type": "uint256"
        }
      ],
      "name": "AvailableTransportSupply",
      "outputs": [
        {
          "internalType": "address",
          "name": "transporter",
          "type": "address"
        },
        {
          "internalType": "uint256",
          "name": "askPrice",
          "type": "uint256"
        }
      ],
      "payable": false,
      "stateMutability": "view",
      "type": "function"
    },
    {
      "constant": true,
      "inputs": [],
      "name": "numTransports",
      "outputs": [
        {
          "internalType": "uint256",
          "name": "",
          "type": "uint256"
        }
      ],
      "payable": false,
      "stateMutability": "view",
      "type": "function"
    },
    {
      "constant": true,
      "inputs": [
        {
          "internalType": "uint256",
          "name": "",
          "type": "uint256"
        }
      ],
      "name": "onGoingTransportation",
      "outputs": [
        {
          "internalType": "uint8",
          "name": "",
          "type": "uint8"
        }
      ],
      "payable": false,
      "stateMutability": "view",
      "type": "function"
    },
    {
      "constant": true,
      "inputs": [
        {
          "internalType": "uint256",
          "name": "",
          "type": "uint256"
        }
      ],
      "name": "transportDemandPool",
      "outputs": [
        {
          "internalType": "address",
          "name": "fromAddress",
          "type": "address"
        },
        {
          "internalType": "address",
          "name": "toAddress",
          "type": "address"
        },
        {
          "internalType": "address",
          "name": "transporter",
          "type": "address"
        },
        {
          "internalType": "enum EthMov.SizeCategory",
          "name": "sizeCategory",
          "type": "uint8"
        },
        {
          "internalType": "enum EthMov.WeightCategory",
          "name": "weightCategory",
          "type": "uint8"
        },
        {
          "internalType": "uint256",
          "name": "timestamp",
          "type": "uint256"
        },
        {
          "internalType": "uint256",
          "name": "maxDeliveryTimestamp",
          "type": "uint256"
        },
        {
          "internalType": "uint256",
          "name": "weiPacketValue",
          "type": "uint256"
        },
        {
          "internalType": "uint256",
          "name": "price",
          "type": "uint256"
        }
      ],
      "payable": false,
      "stateMutability": "view",
      "type": "function"
    },
    {
      "constant": false,
      "inputs": [],
      "name": "withdraw",
      "outputs": [],
      "payable": false,
      "stateMutability": "nonpayable",
      "type": "function"
    },
    {
      "constant": true,
      "inputs": [
        {
          "internalType": "uint256",
          "name": "_transportID",
          "type": "uint256"
        }
      ],
      "name": "viewItinerary",
      "outputs": [
        {
          "internalType": "uint8[4]",
          "name": "itinerary",
          "type": "uint8[4]"
        }
      ],
      "payable": false,
      "stateMutability": "view",
      "type": "function"
    },
    {
      "constant": false,
      "inputs": [
        {
          "internalType": "address",
          "name": "_to",
          "type": "address"
        },
        {
          "internalType": "uint8",
          "name": "_sizeCategory",
          "type": "uint8"
        },
        {
          "internalType": "uint8",
          "name": "_weightCategory",
          "type": "uint8"
        },
        {
          "internalType": "uint8[4]",
          "name": "_itinerary",
          "type": "uint8[4]"
        },
        {
          "internalType": "uint256",
          "name": "_maxDeliveryTimestamp",
          "type": "uint256"
        },
        {
          "internalType": "uint256",
          "name": "_weiPacketValue",
          "type": "uint256"
        },
        {
          "internalType": "uint256",
          "name": "_bidPrice",
          "type": "uint256"
        }
      ],
      "name": "demandTransport",
      "outputs": [
        {
          "internalType": "uint256",
          "name": "transportID",
          "type": "uint256"
        }
      ],
      "payable": false,
      "stateMutability": "nonpayable",
      "type": "function"
    },
    {
      "constant": false,
      "inputs": [
        {
          "internalType": "uint256",
          "name": "_transportID",
          "type": "uint256"
        },
        {
          "internalType": "uint256",
          "name": "_askPrice",
          "type": "uint256"
        }
      ],
      "name": "supplyTransport",
      "outputs": [],
      "payable": false,
      "stateMutability": "nonpayable",
      "type": "function"
    },
    {
      "constant": false,
      "inputs": [
        {
          "internalType": "uint256",
          "name": "_transportID",
          "type": "uint256"
        },
        {
          "internalType": "address payable",
          "name": "_selectedTransporter",
          "type": "address"
        }
      ],
      "name": "allocateTransport",
      "outputs": [],
      "payable": true,
      "stateMutability": "payable",
      "type": "function"
    },
    {
      "constant": false,
      "inputs": [
        {
          "internalType": "uint256",
          "name": "_transportID",
          "type": "uint256"
        }
      ],
      "name": "confirmPickUp",
      "outputs": [],
      "payable": false,
      "stateMutability": "nonpayable",
      "type": "function"
    },
    {
      "constant": false,
      "inputs": [
        {
          "internalType": "uint256",
          "name": "_transportID",
          "type": "uint256"
        }
      ],
      "name": "confirmDelivery",
      "outputs": [],
      "payable": false,
      "stateMutability": "nonpayable",
      "type": "function"
    },
    {
      "constant": false,
      "inputs": [
        {
          "internalType": "uint256",
          "name": "_transportID",
          "type": "uint256"
        }
      ],
      "name": "cancelTransportDemand",
      "outputs": [],
      "payable": false,
      "stateMutability": "nonpayable",
      "type": "function"
    },
    {
      "constant": false,
      "inputs": [
        {
          "internalType": "uint256",
          "name": "_transportID",
          "type": "uint256"
        }
      ],
      "name": "cancelTransportSupply",
      "outputs": [],
      "payable": false,
      "stateMutability": "nonpayable",
      "type": "function"
    },
    {
      "constant": true,
      "inputs": [
        {
          "internalType": "uint256",
          "name": "_transportID",
          "type": "uint256"
        }
      ],
      "name": "getAvailableTransportSupplyLength",
      "outputs": [
        {
          "internalType": "uint256",
          "name": "",
          "type": "uint256"
        }
      ],
      "payable": false,
      "stateMutability": "view",
      "type": "function"
    }
  ],
  "bytecode": "0x6080604052600060015534801561001557600080fd5b506120eb806100256000396000f3fe6080604052600436106100dd5760003560e01c80636810a5541161007f57806390af073f1161005957806390af073f146104c9578063a5b9ee1414610517578063e59a55cd14610552578063fd84cb97146105de576100dd565b80636810a554146103ec5780636d84abcf1461041757806389a47deb14610452576100dd565b80631f6d7d82116100bb5780631f6d7d82146102245780633ccfd60b1461034b5780633d8b6bbe146103625780635302560c146103b1576100dd565b806301368a78146100e25780630826279014610137578063159b33751461017c575b600080fd5b3480156100ee57600080fd5b5061011b6004803603602081101561010557600080fd5b8101908080359060200190929190505050610619565b604051808260ff1660ff16815260200191505060405180910390f35b34801561014357600080fd5b5061017a6004803603604081101561015a57600080fd5b810190808035906020019092919080359060200190929190505050610639565b005b34801561018857600080fd5b5061020e60048036036101408110156101a057600080fd5b81019080803573ffffffffffffffffffffffffffffffffffffffff169060200190929190803560ff169060200190929190803560ff1690602001909291908060800190919291929080359060200190929190803590602001909291908035906020019092919050505061076d565b6040518082815260200191505060405180910390f35b34801561023057600080fd5b5061025d6004803603602081101561024757600080fd5b8101908080359060200190929190505050610a7d565b604051808a73ffffffffffffffffffffffffffffffffffffffff1673ffffffffffffffffffffffffffffffffffffffff1681526020018973ffffffffffffffffffffffffffffffffffffffff1673ffffffffffffffffffffffffffffffffffffffff1681526020018873ffffffffffffffffffffffffffffffffffffffff1673ffffffffffffffffffffffffffffffffffffffff16815260200187600281111561030357fe5b60ff16815260200186600281111561031757fe5b60ff168152602001858152602001848152602001838152602001828152602001995050505050505050505060405180910390f35b34801561035757600080fd5b50610360610b45565b005b34801561036e57600080fd5b5061039b6004803603602081101561038557600080fd5b8101908080359060200190929190505050610c16565b6040518082815260200191505060405180910390f35b3480156103bd57600080fd5b506103ea600480360360208110156103d457600080fd5b8101908080359060200190929190505050610c36565b005b3480156103f857600080fd5b50610401611062565b6040518082815260200191505060405180910390f35b34801561042357600080fd5b506104506004803603602081101561043a57600080fd5b8101908080359060200190929190505050611068565b005b34801561045e57600080fd5b5061048b6004803603602081101561047557600080fd5b81019080803590602001909291905050506111b4565b6040518082600460200280838360005b838110156104b657808201518184015260208101905061049b565b5050505090500191505060405180910390f35b610515600480360360408110156104df57600080fd5b8101908080359060200190929190803573ffffffffffffffffffffffffffffffffffffffff1690602001909291905050506112d8565b005b34801561052357600080fd5b506105506004803603602081101561053a57600080fd5b810190808035906020019092919050505061179b565b005b34801561055e57600080fd5b506105956004803603604081101561057557600080fd5b810190808035906020019092919080359060200190929190505050611adc565b604051808373ffffffffffffffffffffffffffffffffffffffff1673ffffffffffffffffffffffffffffffffffffffff1681526020018281526020019250505060405180910390f35b3480156105ea57600080fd5b506106176004803603602081101561060157600080fd5b8101908080359060200190929190505050611b3a565b005b60046020528060005260406000206000915054906101000a900460ff1681565b6003600083815260200190815260200160002060405180604001604052803373ffffffffffffffffffffffffffffffffffffffff168152602001838152509080600181540180825580915050906001820390600052602060002090600202016000909192909190915060008201518160000160006101000a81548173ffffffffffffffffffffffffffffffffffffffff021916908373ffffffffffffffffffffffffffffffffffffffff160217905550602082015181600101555050507f98cd5064478fd90f2f72549bedecba7f2caba213ee3d5b8b5a920d87ecc569af823383604051808481526020018373ffffffffffffffffffffffffffffffffffffffff1673ffffffffffffffffffffffffffffffffffffffff168152602001828152602001935050505060405180910390a15050565b600060016000815480929190600101919050555060015490506040518061014001604052803373ffffffffffffffffffffffffffffffffffffffff1681526020018973ffffffffffffffffffffffffffffffffffffffff168152602001600073ffffffffffffffffffffffffffffffffffffffff1681526020018860ff1660028111156107f657fe5b600281111561080157fe5b81526020018760ff16600281111561081557fe5b600281111561082057fe5b8152602001866004806020026040519081016040528092919082600460200280828437600081840152601f19601f8201169050808301925050505050508152602001428152602001858152602001848152602001838152506002600083815260200190815260200160002060008201518160000160006101000a81548173ffffffffffffffffffffffffffffffffffffffff021916908373ffffffffffffffffffffffffffffffffffffffff16021790555060208201518160010160006101000a81548173ffffffffffffffffffffffffffffffffffffffff021916908373ffffffffffffffffffffffffffffffffffffffff16021790555060408201518160020160006101000a81548173ffffffffffffffffffffffffffffffffffffffff021916908373ffffffffffffffffffffffffffffffffffffffff16021790555060608201518160020160146101000a81548160ff0219169083600281111561098457fe5b021790555060808201518160020160156101000a81548160ff021916908360028111156109ad57fe5b021790555060a0820151816003019060046109c9929190611dcc565b5060c0820151816004015560e08201518160050155610100820151816006015561012082015181600701559050508560ff168760ff168660405180826004602002808284378083019250505091505060405180910390207f12e241377aec2306fac6f96b307f1204aab3113b8a8c7dfaee5e142d8623f0a7844289886040518085815260200184815260200183815260200182815260200194505050505060405180910390a4809050979650505050505050565b60026020528060005260406000206000915090508060000160009054906101000a900473ffffffffffffffffffffffffffffffffffffffff16908060010160009054906101000a900473ffffffffffffffffffffffffffffffffffffffff16908060020160009054906101000a900473ffffffffffffffffffffffffffffffffffffffff16908060020160149054906101000a900460ff16908060020160159054906101000a900460ff16908060040154908060050154908060060154908060070154905089565b60008060003373ffffffffffffffffffffffffffffffffffffffff1673ffffffffffffffffffffffffffffffffffffffff16815260200190815260200160002054905060008060003373ffffffffffffffffffffffffffffffffffffffff1673ffffffffffffffffffffffffffffffffffffffff168152602001908152602001600020819055503373ffffffffffffffffffffffffffffffffffffffff166108fc829081150290604051600060405180830381858888f19350505050158015610c12573d6000803e3d6000fd5b5050565b600060036000838152602001908152602001600020805490509050919050565b80600280811115610c4357fe5b6004600083815260200190815260200160002060009054906101000a900460ff1660ff161415610cbe576040517f08c379a0000000000000000000000000000000000000000000000000000000008152600401808060200182810382526030815260200180611f326030913960400191505060405180910390fd5b60008090505b6003600084815260200190815260200160002080549050811015610dd1573373ffffffffffffffffffffffffffffffffffffffff16600360008581526020019081526020016000208281548110610d1757fe5b906000526020600020906002020160000160009054906101000a900473ffffffffffffffffffffffffffffffffffffffff1673ffffffffffffffffffffffffffffffffffffffff161415610dc457600360008481526020019081526020016000208181548110610d8357fe5b9060005260206000209060020201600080820160006101000a81549073ffffffffffffffffffffffffffffffffffffffff0219169055600182016000905550505b8080600101915050610cc4565b5060016002811115610ddf57fe5b60ff166004600084815260200190815260200160002060009054906101000a900460ff1660ff16148015610e7457503373ffffffffffffffffffffffffffffffffffffffff166002600084815260200190815260200160002060020160009054906101000a900473ffffffffffffffffffffffffffffffffffffffff1673ffffffffffffffffffffffffffffffffffffffff16145b15610ff2576002600083815260200190815260200160002060020160006101000a81549073ffffffffffffffffffffffffffffffffffffffff021916905560006002811115610ebf57fe5b6004600084815260200190815260200160002060006101000a81548160ff021916908360ff16021790555060026000838152602001908152602001600020600701546000806002600086815260200190815260200160002060000160009054906101000a900473ffffffffffffffffffffffffffffffffffffffff1673ffffffffffffffffffffffffffffffffffffffff1673ffffffffffffffffffffffffffffffffffffffff168152602001908152602001600020600082825401925050819055507f81f6c8fdf5c0794749166b428249c02a7962d248f18cfa88e70a564b282b79a58233604051808381526020018273ffffffffffffffffffffffffffffffffffffffff1673ffffffffffffffffffffffffffffffffffffffff1681526020019250505060405180910390a161105e565b7fea891f22d24a1a6517e1cfc86903a164db8e2fa2619a5329148237960077ecd18233604051808381526020018273ffffffffffffffffffffffffffffffffffffffff1673ffffffffffffffffffffffffffffffffffffffff1681526020019250505060405180910390a15b5050565b60015481565b803373ffffffffffffffffffffffffffffffffffffffff166002600083815260200190815260200160002060020160009054906101000a900473ffffffffffffffffffffffffffffffffffffffff1673ffffffffffffffffffffffffffffffffffffffff1614611123576040517f08c379a00000000000000000000000000000000000000000000000000000000081526004018080602001828103825260308152602001806120536030913960400191505060405180910390fd5b60028081111561112f57fe5b6004600084815260200190815260200160002060006101000a81548160ff021916908360ff1602179055506003600083815260200190815260200160002060006111799190611e66565b7f8a4079a255b0a408852bc51ce05272a95de426e66bfc5d204314b5e67dec0975826040518082815260200191505060405180910390a15050565b6111bc611e8a565b6040518060800160405280600260008581526020019081526020016000206003016000600481106111e957fe5b602091828204019190069054906101000a900460ff1660ff1660ff1681526020016002600085815260200190815260200160002060030160016004811061122c57fe5b602091828204019190069054906101000a900460ff1660ff1660ff1681526020016002600085815260200190815260200160002060030160026004811061126f57fe5b602091828204019190069054906101000a900460ff1660ff1660ff168152602001600260008581526020019081526020016000206003016003600481106112b257fe5b602091828204019190069054906101000a900460ff1660ff1660ff168152509050919050565b813373ffffffffffffffffffffffffffffffffffffffff166002600083815260200190815260200160002060000160009054906101000a900473ffffffffffffffffffffffffffffffffffffffff1673ffffffffffffffffffffffffffffffffffffffff1614611393576040517f08c379a000000000000000000000000000000000000000000000000000000000815260040180806020018281038252602b815260200180611f62602b913960400191505060405180910390fd5b60008090505b6003600085815260200190815260200160002080549050811161144b578273ffffffffffffffffffffffffffffffffffffffff166003600086815260200190815260200160002082815481106113eb57fe5b906000526020600020906002020160000160009054906101000a900473ffffffffffffffffffffffffffffffffffffffff1673ffffffffffffffffffffffffffffffffffffffff16141561143e5761144b565b8080600101915050611399565b60036000858152602001908152602001600020805490508114156114ba576040517f08c379a0000000000000000000000000000000000000000000000000000000008152600401808060200182810382526029815260200180611fd66029913960400191505060405180910390fd5b60006003600086815260200190815260200160002082815481106114da57fe5b9060005260206000209060020201600101549050600060028111156114fb57fe5b60ff166004600087815260200190815260200160002060009054906101000a900460ff1660ff1614611578576040517f08c379a0000000000000000000000000000000000000000000000000000000008152600401808060200182810382526024815260200180611fff6024913960400191505060405180910390fd5b60008114156115d2576040517f08c379a0000000000000000000000000000000000000000000000000000000008152600401808060200182810382526049815260200180611f8d6049913960600191505060405180910390fd5b8034101561162b576040517f08c379a00000000000000000000000000000000000000000000000000000000081526004018080602001828103825260348152602001806120836034913960400191505060405180910390fd5b6001600281111561163857fe5b6004600087815260200190815260200160002060006101000a81548160ff021916908360ff160217905550836002600087815260200190815260200160002060020160006101000a81548173ffffffffffffffffffffffffffffffffffffffff021916908373ffffffffffffffffffffffffffffffffffffffff1602179055508060026000878152602001908152602001600020600701819055507fe3a148342f5c53baf761eed5da75635df54911c460d599b0fd3a643ab3b29af3858583604051808481526020018373ffffffffffffffffffffffffffffffffffffffff1673ffffffffffffffffffffffffffffffffffffffff168152602001828152602001935050505060405180910390a18034036000803373ffffffffffffffffffffffffffffffffffffffff1673ffffffffffffffffffffffffffffffffffffffff168152602001908152602001600020600082825401925050819055505050505050565b803373ffffffffffffffffffffffffffffffffffffffff166002600083815260200190815260200160002060000160009054906101000a900473ffffffffffffffffffffffffffffffffffffffff1673ffffffffffffffffffffffffffffffffffffffff1614611856576040517f08c379a000000000000000000000000000000000000000000000000000000000815260040180806020018281038252602b815260200180611f62602b913960400191505060405180910390fd5b8160028081111561186357fe5b6004600083815260200190815260200160002060009054906101000a900460ff1660ff1614156118de576040517f08c379a0000000000000000000000000000000000000000000000000000000008152600401808060200182810382526030815260200180611f326030913960400191505060405180910390fd5b7fbd459426b66011640c7794c72511ba4e28e7424b9ebac95831b2001d310282f2836040518082815260200191505060405180910390a16001600281111561192257fe5b60ff166004600085815260200190815260200160002060009054906101000a900460ff1660ff1614156119b25760026000848152602001908152602001600020600701546000803373ffffffffffffffffffffffffffffffffffffffff1673ffffffffffffffffffffffffffffffffffffffff168152602001908152602001600020600082825401925050819055505b6003600084815260200190815260200160002060006119d19190611e66565b60026000848152602001908152602001600020600080820160006101000a81549073ffffffffffffffffffffffffffffffffffffffff02191690556001820160006101000a81549073ffffffffffffffffffffffffffffffffffffffff02191690556002820160006101000a81549073ffffffffffffffffffffffffffffffffffffffff02191690556002820160146101000a81549060ff02191690556002820160156101000a81549060ff0219169055600382016000611a929190611eac565b600482016000905560058201600090556006820160009055600782016000905550506004600084815260200190815260200160002060006101000a81549060ff0219169055505050565b60036020528160005260406000208181548110611af557fe5b9060005260206000209060020201600091509150508060000160009054906101000a900473ffffffffffffffffffffffffffffffffffffffff16908060010154905082565b3373ffffffffffffffffffffffffffffffffffffffff166002600083815260200190815260200160002060010160009054906101000a900473ffffffffffffffffffffffffffffffffffffffff1673ffffffffffffffffffffffffffffffffffffffff1614611bf4576040517f08c379a00000000000000000000000000000000000000000000000000000000081526004018080602001828103825260308152602001806120236030913960400191505060405180910390fd5b60026000828152602001908152602001600020600701546000806002600085815260200190815260200160002060020160009054906101000a900473ffffffffffffffffffffffffffffffffffffffff1673ffffffffffffffffffffffffffffffffffffffff1673ffffffffffffffffffffffffffffffffffffffff168152602001908152602001600020600082825401925050819055507f87d76474b59c8a84b66fbd93991a1e3760b806cc4761ad4a08e39d96d4398f6a816040518082815260200191505060405180910390a160026000828152602001908152602001600020600080820160006101000a81549073ffffffffffffffffffffffffffffffffffffffff02191690556001820160006101000a81549073ffffffffffffffffffffffffffffffffffffffff02191690556002820160006101000a81549073ffffffffffffffffffffffffffffffffffffffff02191690556002820160146101000a81549060ff02191690556002820160156101000a81549060ff0219169055600382016000611d849190611eac565b600482016000905560058201600090556006820160009055600782016000905550506004600082815260200190815260200160002060006101000a81549060ff021916905550565b826004601f01602090048101928215611e555791602002820160005b83821115611e2657835183826101000a81548160ff021916908360ff1602179055509260200192600101602081600001049283019260010302611de8565b8015611e535782816101000a81549060ff0219169055600101602081600001049283019260010302611e26565b505b509050611e629190611eb3565b5090565b5080546000825560020290600052602060002090810190611e879190611ee3565b50565b6040518060800160405280600490602082028038833980820191505090505090565b5060009055565b611ee091905b80821115611edc57600081816101000a81549060ff021916905550600101611eb9565b5090565b90565b611f2e91905b80821115611f2a57600080820160006101000a81549073ffffffffffffffffffffffffffffffffffffffff0219169055600182016000905550600201611ee9565b5090565b9056fe416c7265616479207069636b6564207570207472616e73706f7274732063616e6e6f742062652063616e63656c65642e546869732066756e6374696f6e206d7573742062652063616c6c6564206279207468652073656e6465722e4e6f20737570706c79207761732070726f7669646564206279207468697320616464726573732e2041736b207072696365206d7573742062652067726561746572207468616e20302e4f66666572206e6f7420666f756e642e446f75626c652063686561636b2074686520616464726573735472616e73706f72742068617320616c7265616479206265656e20616c6c6f6361746564546869732066756e6374696f6e206d7573742062652063616c6c6564206279207468652064657374696e6174696f6e2e546869732066756e6374696f6e206d7573742062652063616c6c656420627920746865207472616e73706f727465722e4e6f7420656e6f7567682066756e647320746f206d61746368207472616e73706f72746572206f6666657265642070726963652ea265627a7a723158208a720033ae6fbbbb213eb7dbec11a5c9935df1dcabb3c5262959b352e3654bb664736f6c634300050c0032",
  "source": "pragma solidity >=0.5.10;\n\nimport \"./Withdrawal.sol\";\n\n///@title EthMov\ncontract EthMov is Withdrawal {\n    /// @author Cyril Attie\n    /// @notice Matches trasnportation demand with supply\n    /// @dev to be insurable at nexus, to include special conditions option (ex: refrigeration)\n\n    uint256 public numTransports = 0;\n\n    ///@dev size categories of the packet\n    enum SizeCategory {Enveloppe, SmallBox, BigBox}\n    ///@dev weight categories of the packet\n    enum WeightCategory {lessThan1kg, between1kgAnd10kg, moreThan10kg}\n    ///@dev status of the transport\n    enum TransportState {Unallocated, Allocated, PickedUp}\n\n    ///@dev Transport\n    struct Transport {\n        address fromAddress;\n        address toAddress;\n        address transporter;\n        SizeCategory sizeCategory;\n        WeightCategory weightCategory;\n        ///@dev contains _fromLatitude, _fromLongitude, _toLatitude, _toLongitude\n        uint8[4] itinerary;\n        uint256 timestamp;\n        uint256 maxDeliveryTimestamp;\n        /// for insurance purposes\n        uint256 weiPacketValue;\n        ///@dev fee offered or paid for this transport\n        uint256 price;\n    }\n\n    struct Offer {\n        address transporter;\n        uint256 askPrice;\n    }\n\n    ///@dev to record transportation demands\n    mapping(uint256 => Transport) public transportDemandPool;\n    ///@dev to record transportation supplies with offered price\n    mapping(uint256 => Offer[]) public AvailableTransportSupply;\n    ///@dev ongoing transportations and their state\n    mapping(uint256 => uint8) public onGoingTransportation;\n\n    event TransportDemanded(\n        uint256 transportID,\n        uint8[4] indexed itinerary,\n        uint8 indexed sizeCategory,\n        uint8 indexed weightCategory,\n        uint256 timestamp,\n        uint256 maxDeliveryTimestamp,\n        uint256 bidPrice\n    );\n\n    event TransportSupplied(\n        uint256 _transportID,\n        address transportSupplier,\n        uint256 askPrice\n    );\n    event TransportationAllocated(\n        uint256 transportID,\n        address selectedTransporter,\n        uint256 atPrice\n    );\n    event PickUp(uint256 transportID);\n    event Delivery(uint256 transportID);\n    event AllocatedTransportSupplyCancelled(\n        uint256 transportID,\n        address transporter\n    );\n    event UnallocatedTransportSupplyCancelled(\n        uint256 transportID,\n        address transporter\n    );\n    event transportDemandCancellation(uint256 transportID);\n\n    modifier verifySender(uint256 transportId) {\n        ///@param _transportID the transport identifier\n        ///@dev verify sender to allocate transportation to transporter\n        require(\n            transportDemandPool[transportId].fromAddress == msg.sender,\n            \"This function must be called by the sender.\"\n        );\n        _;\n    }\n    modifier verifyTransporter(uint256 transportId) {\n        ///@param _transportID the transport identifier\n        ///@dev verify transporter to confirm pickup\n        require(\n            transportDemandPool[transportId].transporter == msg.sender,\n            \"This function must be called by the transporter.\"\n        );\n        _;\n    }\n    modifier verifyNotPickedUp(uint256 _transportID) {\n        ///@param _transportID the transport identifier\n        ///@dev verify packet has not yet been picked up to let users cancel transport.\n        require(\n            onGoingTransportation[_transportID] !=\n                uint256(TransportState.PickedUp),\n            \"Already picked up transports cannot be canceled.\"\n        );\n        _;\n    }\n\n    function viewItinerary(uint256 _transportID)\n        public\n        view\n        returns (uint8[4] memory itinerary)\n    {\n        return (\n            [\n                transportDemandPool[_transportID].itinerary[0],\n                transportDemandPool[_transportID].itinerary[1],\n                transportDemandPool[_transportID].itinerary[2],\n                transportDemandPool[_transportID].itinerary[3]\n            ]\n        );\n    }\n\n    function demandTransport(\n        address _to,\n        uint8 _sizeCategory,\n        uint8 _weightCategory,\n        uint8[4] calldata _itinerary,\n        uint256 _maxDeliveryTimestamp,\n        uint256 _weiPacketValue,\n        uint256 _bidPrice\n    ) external returns (uint256 transportID) {\n        ///@notice Post a new transportation demand\n        ///@param _to address to which deliver packet\n        ///@param _sizeCategory size category of the packet\n        ///@param _weightCategory weight category of the packet\n        ///@param _itinerary pick up and delivery locations coordinates\n        ///@param _maxDeliveryTimestamp delivery deadline\n        ///@param _weiPacketValue declared value of the packet\n        ///@param _bidPrice offered transportation fee\n        ///@dev increase transport counter\n        numTransports++; // transportID generator\n        transportID = numTransports;\n        ///@dev add TransportDemand to transportDemandPool\n        transportDemandPool[transportID] = Transport({\n            fromAddress: msg.sender,\n            toAddress: _to,\n            transporter: address(0),\n            sizeCategory: SizeCategory(_sizeCategory),\n            weightCategory: WeightCategory(_weightCategory),\n            itinerary: _itinerary,\n            timestamp: now,\n            maxDeliveryTimestamp: _maxDeliveryTimestamp,\n            weiPacketValue: _weiPacketValue,\n            price: _bidPrice\n        });\n\n        ///@dev log TransportDemanded event\n        emit TransportDemanded(\n            transportID,\n            _itinerary,\n            _sizeCategory,\n            _weightCategory,\n            now,\n            _maxDeliveryTimestamp,\n            _bidPrice\n        );\n        return transportID;\n    }\n\n    function supplyTransport(uint256 _transportID, uint256 _askPrice) external {\n        ///@notice supply a Transport service or modify a transport service supplied\n        ///@param _transportID the transport identifier\n        ///@param _askPrice the transport fee asked by the transporter\n        ///@dev add transport supply to the list of available transporters\n        AvailableTransportSupply[_transportID].push(\n            Offer({transporter: msg.sender, askPrice: _askPrice})\n        );\n        ///@dev log Transport Supply event\n        emit TransportSupplied(_transportID, msg.sender, _askPrice);\n    }\n\n    function allocateTransport(\n        uint256 _transportID,\n        address payable _selectedTransporter\n    ) external payable verifySender(_transportID) {\n        ///@notice to select transporter\n        ///@param _transportID the transport identifier\n        ///@dev check selected transporter made an offer for this transport and ether sent is enough to pay the asked fee\n        uint256 i = 0;\n        for (i; i <= AvailableTransportSupply[_transportID].length; i++) {\n            if (\n                AvailableTransportSupply[_transportID][i].transporter ==\n                _selectedTransporter\n            ) break;\n        }\n        require(\n            i != AvailableTransportSupply[_transportID].length,\n            \"Offer not found.Double cheack the address\"\n        );\n        uint256 askPrice = AvailableTransportSupply[_transportID][i].askPrice;\n        require(\n            onGoingTransportation[_transportID] ==\n                uint8(TransportState.Unallocated),\n            \"Transport has already been allocated\"\n        );\n        require(\n            askPrice != 0,\n            \"No supply was provided by this address. Ask price must be greater than 0.\"\n        );\n        require(\n            msg.value >= askPrice,\n            \"Not enough funds to match transporter offered price.\"\n        );\n        ///@dev register transport allocation\n        onGoingTransportation[_transportID] = uint8(TransportState.Allocated);\n        transportDemandPool[_transportID].transporter = _selectedTransporter;\n        transportDemandPool[_transportID].price = askPrice;\n\n        ///@dev log allocated event\n        emit TransportationAllocated(\n            _transportID,\n            _selectedTransporter,\n            askPrice\n        );\n        ///@dev return change to sender\n        pendingWithdrawals[msg.sender] += msg.value - askPrice;\n    }\n\n    function confirmPickUp(uint256 _transportID)\n        external\n        verifyTransporter(_transportID) ///@dev ensures the transport has been allocated\n    {\n        ///@notice to confirm transporter has picked up the packet\n        ///@param _transportID the transport identifier\n        ///@dev transport state is moved to pickedup and available transport supplies are deleted\n        onGoingTransportation[_transportID] = uint8(TransportState.PickedUp);\n        delete AvailableTransportSupply[_transportID];\n        ///@dev log the pickup event\n        emit PickUp(_transportID);\n    }\n\n    function confirmDelivery(uint256 _transportID) external {\n        ///@notice to confirm destination delivery\n        ///@param _transportID the transport identifier\n        ///@dev require the delivery confirmation comes from the receiver\n        require(\n            transportDemandPool[_transportID].toAddress == msg.sender,\n            \"This function must be called by the destination.\"\n        );\n        ///@dev pay the transporter\n        pendingWithdrawals[transportDemandPool[_transportID]\n            .transporter] += transportDemandPool[_transportID].price;\n        ///@dev log delivery and delete all records regarding this transport\n        emit Delivery(_transportID);\n        delete transportDemandPool[_transportID];\n        delete onGoingTransportation[_transportID];\n    }\n\n    function cancelTransportDemand(uint256 _transportID)\n        external\n        verifySender(_transportID) ///@dev check packet has not been picked up yet\n        verifyNotPickedUp(_transportID)\n    {\n        ///@notice cancel the transportation demand\n        ///@param _transportID the transport identifier\n        ///@dev deleted transport\n        emit transportDemandCancellation(_transportID);\n        if (\n            onGoingTransportation[_transportID] ==\n            uint8(TransportState.Allocated)\n        ) {\n            ///@dev if transport has been allocated return the fee locked to the customer\n            pendingWithdrawals[msg.sender] += transportDemandPool[_transportID]\n                .price;\n        }\n        ///@dev delete all records related to this transport identifier\n        delete AvailableTransportSupply[_transportID];\n        delete transportDemandPool[_transportID];\n        delete onGoingTransportation[_transportID];\n\n    }\n\n    function cancelTransportSupply(uint256 _transportID)\n        external\n        verifyNotPickedUp(_transportID)\n    {\n        ///@notice cancel transportation supply\n        ///@param _transportID the transport identifier\n        ///@dev delete offer and emit corresponding event\n        for (\n            uint256 i = 0;\n            i < AvailableTransportSupply[_transportID].length;\n            i++\n        ) {\n            if (\n                AvailableTransportSupply[_transportID][i].transporter ==\n                msg.sender\n            ) {\n                delete AvailableTransportSupply[_transportID][i];\n            }\n        }\n        if (\n            onGoingTransportation[_transportID] ==\n            uint8(TransportState.Allocated) &&\n            transportDemandPool[_transportID].transporter == msg.sender\n        ) {\n            ///@dev delete allocated transporter, set back transport to unallocated and return fee to customer\n            delete transportDemandPool[_transportID].transporter;\n            onGoingTransportation[_transportID] = uint8(\n                TransportState.Unallocated\n            );\n            pendingWithdrawals[transportDemandPool[_transportID]\n                .fromAddress] += transportDemandPool[_transportID].price;\n            ///@dev and emit corresponding event\n            emit AllocatedTransportSupplyCancelled(_transportID, msg.sender);\n        } else {\n            ///@dev else (if unallocated or not allocated to this transporter) just delete offer and emit corresponding event\n            emit UnallocatedTransportSupplyCancelled(_transportID, msg.sender);\n        }\n    }\n\n    function getAvailableTransportSupplyLength(uint256 _transportID)\n        public\n        view\n        returns (uint256)\n    {\n        return AvailableTransportSupply[_transportID].length;\n    }\n}\n",
  "sourcePath": "/home/tumbling20s/_ConsenSys/ethmov/contracts/EthMov.sol",
  "compiler": {
    "name": "solc",
    "version": "0.5.12+commit.7709ece9.Emscripten.clang"
  },
  "schemaVersion": "3.0.20",
  "updatedAt": "2020-02-02T20:47:23.895Z",
  "devdoc": {
    "methods": {},
    "title": "EthMov"
  },
  "userdoc": {
    "methods": {}
  }
}