{
  "contractName": "Withdrawal",
  "abi": [
    {
      "constant": false,
      "inputs": [],
      "name": "withdraw",
      "outputs": [],
      "payable": false,
      "stateMutability": "nonpayable",
      "type": "function"
    }
  ],
  "bytecode": "0x608060405234801561001057600080fd5b50610140806100206000396000f3fe608060405234801561001057600080fd5b506004361061002b5760003560e01c80633ccfd60b14610030575b600080fd5b61003861003a565b005b60008060003373ffffffffffffffffffffffffffffffffffffffff1673ffffffffffffffffffffffffffffffffffffffff16815260200190815260200160002054905060008060003373ffffffffffffffffffffffffffffffffffffffff1673ffffffffffffffffffffffffffffffffffffffff168152602001908152602001600020819055503373ffffffffffffffffffffffffffffffffffffffff166108fc829081150290604051600060405180830381858888f19350505050158015610107573d6000803e3d6000fd5b505056fea265627a7a72315820b79d413632c7c846a300049fdcb3c7ef0075424c2faf564540759d9255a93df664736f6c634300050c0032",
  "source": "pragma solidity >=0.5.10;\n\n///@title Withdrawal Pattern\ncontract Withdrawal {\n    /// @author Cyril Attie\n    /// @notice allows secure withdrawal of funds\n\n    mapping(address => uint256) pendingWithdrawals;\n\n    function withdraw() public {\n        ///@notice withdraw your funds\n        uint256 amount = pendingWithdrawals[msg.sender];\n        pendingWithdrawals[msg.sender] = 0;\n        msg.sender.transfer(amount);\n    }\n}\n\n\n",
  "sourcePath": "/home/tumbling20s/_ConsenSys/ethmov/contracts/Withdrawal.sol",
  "compiler": {
    "name": "solc",
    "version": "0.5.12+commit.7709ece9.Emscripten.clang"
  },
  "schemaVersion": "3.0.20",
  "updatedAt": "2020-02-02T22:55:32.772Z",
  "networkType": "ethereum",
  "devdoc": {
    "methods": {},
    "title": "Withdrawal Pattern"
  },
  "userdoc": {
    "methods": {}
  }
}